:100000000C9462000C948A000C948A000C948A0070
:100010000C948A000C948A000C948A000C948A0038
:100020000C948A000C948A000C948A000C948A0028
:100030000C948A000C948A000C948A000C948A0018
:100040000C9455020C948A000C94C5020C949F02E7
:100050000C948A000C948A000C948A000C948A00F8
:100060000C948A000C948A000000000025002800EF
:100070002B0000000000240027002A0000000000E0
:1000800023002600290004040404040404040202DA
:100090000202020203030303030301020408102007
:1000A0004080010204081020010204081020000012
:1000B0000008000201000003040700000000000027
:1000C0000000F70211241FBECFEFD8E0DEBFCDBF86
:1000D00022E0AEE6B1E001C01D92A432B207E1F722
:1000E00011E0A0E0B1E0E8EEFEE002C005900D9264
:1000F000AE36B107D9F710E0C2E6D0E004C02197D0
:10010000FE010E947A05C136D107C9F70E943F035C
:100110000C9472070C94000090E0FC01E255FF4F34
:100120002491FC01E656FF4F3491FC01EA57FF4F42
:10013000E491EE23C1F1222339F02330E9F090F469
:10014000213001F1223011F1F0E0EE0FFF1FE458F1
:10015000FF4FA591B491EC91E32381E090E029F564
:1001600080E008952730A9F02830C9F0243061F7E5
:10017000809180008F7D03C0809180008F77809375
:100180008000E2CF84B58F7784BDDECF84B58F7DCC
:10019000FBCF8091B0008F778093B000D5CF809156
:1001A000B0008F7DF9CF80E090E00895CF93DF938A
:1001B00090E0FC01E656FF4F24918A579F4FFC01C7
:1001C00084918823D1F090E0880F991FFC01EE58AC
:1001D000FF4FA591B491FC01E859FF4FC591D4910F
:1001E000623071F49FB7F8943C91822F80958323FD
:1001F0008C93E8812E2B28839FBFDF91CF910895A8
:100200008FB7F894EC912E2B2C938FBFF6CFAF9233
:10021000BF92CF92DF92EF92FF920F931F93CF93F3
:10022000DF936C017B018B01040F151FEB015E0155
:10023000AE18BF08C017D10759F06991D601ED91EA
:10024000FC910190F081E02DC6010995892B79F789
:10025000C501DF91CF911F910F91FF90EF90DF903B
:10026000CF90BF90AF900895FC014481558160818B
:10027000718189E791E00E94070142E050E068E166
:1002800071E089E791E00C940701FC01538D448DE6
:10029000252F30E0842F90E0821B930B541710F031
:1002A000CF96089501970895FC01918D828D98173E
:1002B00061F0A28DAE0FBF2FB11D5D968C91928D16
:1002C0009F5F9F73928F90E008958FEF9FEF089547
:1002D000FC01918D828D981731F0828DE80FF11D10
:1002E000858D90E008958FEF9FEF0895FC01918D2B
:1002F000228D892F90E0805C9F4F821B91098F7324
:100300009927089589E791E00E94760121E0892BE1
:1003100009F420E0822F089580E090E0892B29F0F5
:100320000E94820181110C9400000895FC01A48DAB
:10033000A80FB92FB11DA35ABF4F2C91848D90E007
:1003400001968F739927848FA689B7892C93A089EA
:10035000B1898C91837080648C93938D848D981374
:1003600006C00288F389E02D80818F7D8083089507
:10037000EF92FF920F931F93CF93DF93EC0181E0F5
:10038000888F9B8D8C8D98131AC0E889F98980819C
:1003900085FF15C09FB7F894EE89FF896083E889CF
:1003A000F98980818370806480839FBF81E090E0C1
:1003B000DF91CF911F910F91FF90EF900895F62E4E
:1003C0000B8D10E00F5F1F4F0F731127E02E8C8DE8
:1003D0008E110CC00FB607FCFACFE889F98980812D
:1003E00085FFF5CFCE010E949601F1CFEB8DEC0F8A
:1003F000FD2FF11DE35AFF4FF0829FB7F8940B8F4A
:10040000EA89FB8980818062CFCFCF93DF93EC01B3
:10041000888D8823B9F0AA89BB89E889F9898C91EC
:1004200085FD03C0808186FD0DC00FB607FCF7CFA8
:100430008C9185FFF2CF808185FFEDCFCE010E94A8
:100440009601E9CFDF91CF910895FC0180819181E0
:10045000009711F00C941C0608950F931F93CF93EF
:10046000DF93EC0188819981009759F02A813B81C3
:100470002617370730F081E0DF91CF911F910F9160
:1004800008958B016F5F7F4F0E94A506009759F07A
:10049000998388831B830A832C813D81232B59F701
:1004A000FC011082E8CF80E0E7CF1F920F920FB6D9
:1004B0000F9211242F933F938F939F93AF93BF93EA
:1004C0008091750190917601A0917701B0917801AA
:1004D0003091740123E0230F2D3758F50196A11DAB
:1004E000B11D209374018093750190937601A093C0
:1004F0007701B09378018091700190917101A09182
:100500007201B09173010196A11DB11D809370011C
:1005100090937101A0937201B0937301BF91AF9159
:100520009F918F913F912F910F900FBE0F901F9031
:10053000189526E8230F0296A11DB11DD2CF1F9258
:100540000F920FB60F9211242F933F934F935F9307
:100550006F937F938F939F93AF93BF93EF93FF938B
:1005600089E791E00E949601FF91EF91BF91AF91D1
:100570009F918F917F916F915F914F913F912F91BB
:100580000F900FBE0F901F9018951F920F920FB6ED
:100590000F9211242F938F939F93EF93FF93E091EA
:1005A0008901F0918A018081E0918F01F0919001A1
:1005B00082FD1BC09081809192018F5F8F7320918B
:1005C0009301821741F0E0919201F0E0E758FE4F6D
:1005D000958F80939201FF91EF919F918F912F9131
:1005E0000F900FBE0F901F9018958081F4CFE9E710
:1005F000F1E01382128288EE93E0A0E0B0E0848301
:100600009583A683B7838AE091E09183808385EC0C
:1006100090E09587848784EC90E09787868780ECCC
:1006200090E0918B808B81EC90E0938B828B82ECBD
:1006300090E0958B848B86EC90E0978B868B118E67
:10064000128E138E148EEDE1F2E09DE090838CE02B
:1006500081832BE0228340E050E066E176E4409322
:10066000190250931A0260931B0270931C022EE031
:100670002093180290931702809316020895CF9347
:10068000DF9300D000D000D0CDB7DEB7789484B52A
:10069000826084BD84B5816084BD85B5826085BD7E
:1006A00085B5816085BD80916E00816080936E000C
:1006B00010928100809181008260809381008091FE
:1006C00081008160809381008091800081608093AF
:1006D00080008091B10084608093B1008091B0006F
:1006E00081608093B00080917A00846080937A006A
:1006F00080917A00826080937A0080917A00816094
:1007000080937A0080917A00806880937A001092BA
:10071000C1006091190270911A0280911B029091A0
:100720001C020E9429056B017C0160E079E08DE3E9
:1007300090E0A70196010E94580521503109410916
:1007400051095695479537952795E0918901F09184
:100750008A0182E08083C11481EED806E104F104AD
:1007600021F0211580E13807A8F0E0918901F0918E
:100770008A01108260E874E88EE190E0A70196019A
:100780000E94580521503109410951095695479554
:1007900037952795E0918501F09186013083E091AE
:1007A0008701F0918801208310929101E0918D01E1
:1007B000F0918E0186E08083E0918B01F0918C01B5
:1007C000808180618083E0918B01F0918C01808138
:1007D00088608083E0918B01F0918C01808180683A
:1007E0008083E0918B01F0918C0180818F7D8083EB
:1007F00061E080911D020E94D60061E080911E029E
:100800000E94D60061E080911F020E94D60062E043
:10081000809117020E94D60062E0809116020E9429
:10082000D60010926F0110926E0100E010E0EE24ED
:10083000E394F12C80916E0190916F01009761F02B
:100840000197E9F101151105A9F30E94820188239E
:1008500089F30E940000EECF1A8219821C821B824B
:100860001E821D826AE170E0CE0101960E942D0277
:1008700029813A81811119C02115310519F0C90169
:100880000E941C061A8219821E821D821C821B82F3
:10089000CE0101960E943401CE0101960E942502EC
:1008A000F0926F01E0926E01CDCF8AE190E09E83DD
:1008B0008D836BE171E0C9010E946B07E9CF8091E4
:1008C00017020E948C00892B21F51A8219821C8242
:1008D0001B821E821D826AE170E0CE0101960E9499
:1008E0002D0229813A81811140C02115310519F06D
:1008F000C9010E941C061A8219821E821D821C8256
:100900001B82CE0101960E943401CE0101960E9405
:100910002502809116020E948C00892B09F092CF4B
:100920001A8219821C821B821E821D826BE170E07A
:10093000CE0101960E942D0229813A8181111FC0AA
:100940002115310519F0C9010E941C061A8219826D
:100950001E821D821C821B82CE0101960E943401E0
:10096000CE0101960E9425026DCF8AE190E09E8320
:100970008D8366E371E0C9010E946B07C2CF8BE1F2
:1009800090E09E838D8361E571E0C9010E946B0751
:10099000E3CF57FD9058440F551F59F05F3F71F05A
:1009A0004795880F97FB991F61F09F3F79F08795D6
:1009B0000895121613061406551FF2CF4695F1DF5F
:1009C00008C0161617061806991FF1CF86957105EF
:1009D000610508940895E894BB2766277727CB0123
:1009E00097F908952F923F924F925F926F927F9264
:1009F0008F929F92AF92BF92CF92DF92EF92FF922F
:100A00000F931F93CF93DF93CDB7DEB7CA1BDB0BDA
:100A10000FB6F894DEBF0FBECDBF09942A8839887F
:100A200048885F846E847D848C849B84AA84B98486
:100A3000C884DF80EE80FD800C811B81AA81B98192
:100A4000CE0FD11D0FB6F894DEBF0FBECDBFED01A6
:100A500008950E94D10488F09F5798F0B92F9927E4
:100A6000B751B0F0E1F0660F771F881F991F1AF099
:100A7000BA95C9F714C0B13091F00E94EB04B1E00F
:100A800008950C94EB04672F782F8827B85F39F00E
:100A9000B93FCCF3869577956795B395D9F73EF432
:100AA00090958095709561957F4F8F4F9F4F0895DA
:100AB000A1E21A2EAA1BBB1BFD010DC0AA1FBB1F62
:100AC000EE1FFF1FA217B307E407F50720F0A21BD4
:100AD000B30BE40BF50B661F771F881F991F1A9441
:100AE00069F760957095809590959B01AC01BD016B
:100AF000CF010895EE0FFF1F0590F491E02D0994AA
:100B00000F931F93CF93DF938230910510F482E00F
:100B100090E0E0912202F091230230E020E0B0E08A
:100B2000A0E0309799F42115310509F44AC0281B3B
:100B3000390B24303105D8F58A819B816115710507
:100B400089F1FB0193838283FE0111C040815181B1
:100B50000281138148175907E0F04817590799F4A3
:100B6000109761F012960C93129713961C9332967D
:100B7000CF01DF91CF911F910F9108950093220231
:100B800010932302F4CF2115310551F0421753077A
:100B900038F0A901DB019A01BD01DF01F801C1CFE5
:100BA000EF01F9CF9093230280932202CDCFFE0173
:100BB000E20FF31F819391932250310939832883E7
:100BC000D7CF2091200230912102232B41F4209194
:100BD00002013091030130932102209320022091E1
:100BE0000001309101012115310541F42DB73EB7C7
:100BF0004091040150910501241B350BE091200226
:100C0000F0912102E217F307A0F42E1B3F0B2817E7
:100C1000390778F0AC014E5F5F4F2417350748F075
:100C20004E0F5F1F509321024093200281939193B6
:100C30009FCFF0E0E0E09CCFCF93DF930097E9F007
:100C4000FC01329713821282A0912202B0912302FA
:100C5000ED0130E020E01097A1F420813181820F76
:100C6000931F20912002309121022817390709F0A3
:100C700061C0F0932102E0932002DF91CF910895AB
:100C8000EA01CE17DF07E8F54A815B819E01411535
:100C90005105B1F7E901FB83EA8349915991C40FEA
:100CA000D51FEC17FD0761F4808191810296840FB6
:100CB000951FE90199838883828193819B838A832D
:100CC000F0E0E0E012968D919C9113970097B9F5B2
:100CD0002D913C911197CD010296820F931F209187
:100CE0002002309121022817390739F6309751F543
:100CF0001092230210922202B0932102A0932002AC
:100D0000BCCFD383C28340815181840F951FC81704
:100D1000D90761F44E5F5F4F88819981480F591F51
:100D2000518340838A819B8193838283211531057E
:100D300009F0B0CFF0932302E09322029ECFFD0191
:100D4000DC01C0CF13821282D7CFB0E0A0E0EBEA83
:100D5000F6E00C94F4048C01009751F4CB010E944E
:100D600080058C01C801CDB7DEB7E0E10C94100519
:100D7000FC01E60FF71F9C0122503109E217F3072F
:100D800008F49DC0D901CD91DC911197C617D70702
:100D900098F0C530D10530F3CE0104978617970738
:100DA00008F3C61BD70B2297C193D1936D937C9305
:100DB000CF010E941C06D6CF5B01AC1ABD0A4C01C4
:100DC0008C0E9D1EA0912202B0912302512C412C29
:100DD000F12CE12C109731F58091200290912102A5
:100DE0008815990509F05CC04616570608F058C0EA
:100DF0008091000190910101009741F48DB79EB759
:100E00004091040150910501841B950BE817F907E7
:100E100008F055C0F0932102E0932002F90171839C
:100E20006083A0CF8D919C91119712966C90129730
:100E300013967C901397A815B90559F56C0142E0FB
:100E4000C40ED11CCA14DB0420F1AC014A195B09A1
:100E5000DA011296159780F0628273825183408383
:100E6000D9016D937C93E114F10471F0D7011396CD
:100E7000FC93EE93129776CF22968C0F9D1FF9016B
:100E800091838083F301EFCFF0932302E09322025A
:100E900069CF4816590608F42C017D01D3019ACF79
:100EA000CB010E9480057C01009749F0AE01B8019A
:100EB0000E946207C8010E941C06870153CF10E000
:100EC00000E050CFFB01DC0102C001900D924150C7
:100ED0005040D8F70895FB01DC0101900D920020ED
:080EE000E1F70895F894FFCF3B
:100EE80000002402800000000000B801070145014D
:100EF80005027601540168010D0A007468652073C3
:100F0800797374656D206973207374617274696E86
:100F1800672E2E2E2E00697220696E736964652013
:100F2800627574746F6E2074726967676572656440
:100F3800006972206F7574736964652062757474D2
:0E0F48006F6E207472696767657265640000E1
:00000001FF
