:100000000C945D000C9485000C9485000C94850084
:100010000C9485000C9485000C9485000C9485004C
:100020000C9485000C9485000C9485000C9485003C
:100030000C9485000C9485000C9485000C9485002C
:100040000C9411020C9485000C9481020C945B02B8
:100050000C9485000C9485000C9485000C9485000C
:100060000C9485000C9485000000000024002700FB
:100070002A0000000000250028002B0004040404CE
:100080000404040402020202020203030303030342
:10009000010204081020408001020408102001021F
:1000A00004081020000000080002010000030407FB
:1000B0000000000000000000B30211241FBECFEFBB
:1000C000D8E0DEBFCDBF11E0A0E0B1E0EEE5F8E0A2
:1000D00002C005900D92A832B107D9F721E0A8E23D
:1000E000B1E001C01D92A13DB207E1F710E0CDE5FE
:1000F000D0E004C02197FE010E942704CC35D1072F
:10010000C9F70E94E8020C942D040C94000090E0C2
:10011000FC01EC55FF4F2491FC01E057FF4F349157
:10012000FC01E458FF4FE491EE23C9F0222339F09B
:10013000233001F1A8F4213019F1223029F1F0E047
:10014000EE0FFF1FEE58FF4FA591B4918FB7F894B3
:10015000EC91611126C030953E233C938FBF0895EA
:100160002730A9F02830C9F0243049F78091800069
:100170008F7D03C0809180008F7780938000DFCFD8
:1001800084B58F7784BDDBCF84B58F7DFBCF809125
:10019000B0008F778093B000D2CF8091B0008F7D78
:1001A000F9CF3E2BDACFCF93DF9390E0FC01E057FD
:1001B000FF4F249184589F4FFC0184918823D1F0F4
:1001C00090E0880F991FFC01E859FF4FA591B49169
:1001D000FC01EE58FF4FC591D49161110EC09FB73D
:1001E000F8948C91E22FE0958E238C932881E22362
:1001F000E8839FBFDF91CF9108958FB7F894EC917A
:10020000E22BEC938FBFF6CFAF92BF92CF92DF92EB
:10021000EF92FF920F931F93CF93DF936C017B01BB
:100220008B01040F151FEB015E01AE18BF08C0174C
:10023000D10759F06991D601ED91FC910190F081BF
:10024000E02DC6010995892B79F7C501DF91CF9182
:100250001F910F91FF90EF90DF90CF90BF90AF90E4
:100260000895FC01538D448D252F30E0842F90E0BC
:10027000821B930B541710F0CF96089501970895A1
:10028000FC01918D828D981761F0A28DAE0FBF2F6A
:10029000B11D5D968C91928D9F5F9F73928F90E0C0
:1002A00008958FEF9FEF0895FC01918D828D98172F
:1002B00031F0828DE80FF11D858D90E008958FEF6C
:1002C0009FEF0895FC01918D228D892F90E0805C35
:1002D0009F4F821B91098F739927089581E391E0C5
:1002E0000E94620121E0892B09F420E0822F089509
:1002F00080E090E0892B29F00E946E0181110C941E
:1003000000000895FC01A48DA80FB92FB11DA35AB8
:10031000BF4F2C91848D90E001968F739927848F25
:10032000A689B7892C93A089B1898C918370806448
:100330008C93938D848D981306C00288F389E02DE9
:1003400080818F7D80830895EF92FF920F931F939A
:10035000CF93DF93EC0181E0888F9B8D8C8D981378
:100360001AC0E889F989808185FF15C09FB7F89484
:10037000EE89FF896083E889F989808183708064D0
:1003800080839FBF81E090E0DF91CF911F910F911B
:10039000FF90EF900895F62E0B8D10E00F5F1F4F2A
:1003A0000F731127E02E8C8D8E110CC00FB607FC39
:1003B000FACFE889F989808185FFF5CFCE010E94C7
:1003C0008201F1CFEB8DEC0FFD2FF11DE35AFF4FB2
:1003D000F0829FB7F8940B8FEA89FB898081806255
:1003E000CFCFCF93DF93EC01888D8823B9F0AA8912
:1003F000BB89E889F9898C9185FD03C0808186FDE0
:100400000DC00FB607FCF7CF8C9185FFF2CF80812E
:1004100085FFEDCFCE010E948201E9CFDF91CF9120
:1004200008951F920F920FB60F9211242F933F93AE
:100430008F939F93AF93BF9380912D0190912E0145
:10044000A0912F01B091300130912C0123E0230FB6
:100450002D3758F50196A11DB11D20932C018093D5
:100460002D0190932E01A0932F01B0933001809124
:10047000280190912901A0912A01B0912B010196A8
:10048000A11DB11D8093280190932901A0932A01F9
:10049000B0932B01BF91AF919F918F913F912F917D
:1004A0000F900FBE0F901F90189526E8230F02960D
:1004B000A11DB11DD2CF1F920F920FB60F92112422
:1004C0002F933F934F935F936F937F938F939F935C
:1004D000AF93BF93EF93FF9381E391E00E9482017A
:1004E000FF91EF91BF91AF919F918F917F916F910C
:1004F0005F914F913F912F910F900FBE0F901F90E2
:1005000018951F920F920FB60F9211242F938F936D
:100510009F93EF93FF93E0914101F091420180811D
:10052000E0914701F091480182FD1BC090818091CC
:100530004A018F5F8F7320914B01821741F0E09148
:100540004A01F0E0EF5CFE4F958F80934A01FF91E6
:10055000EF919F918F912F910F900FBE0F901F9051
:1005600018958081F4CFE1E3F1E01382128288EEE6
:1005700093E0A0E0B0E084839583A683B78389E10C
:1005800091E09183808385EC90E09587848784EC6B
:1005900090E09787868780EC90E0918B808B81EC50
:1005A00090E0938B828B82EC90E0958B848B86EC31
:1005B00090E0978B868B118E128E138E148EEEEC3C
:1005C000F1E08DE080838CE081838BE0828308956D
:1005D000CF93DF9300D000D000D0CDB7DEB77894B2
:1005E00084B5826084BD84B5816084BD85B5826038
:1005F00085BD85B5816085BD80916E0081608093E9
:100600006E00109281008091810082608093810051
:100610008091810081608093810080918000816061
:10062000809380008091B10084608093B1008091BC
:10063000B00081608093B00080917A0084608093E4
:100640007A0080917A00826080937A0080917A00AB
:10065000816080937A0080917A00806880937A002C
:100660001092C10061E08091CE010E94D30061E050
:100670008091CF010E94D30061E08091D0010E945F
:10068000D300E0914101F091420182E08083E0914A
:100690003D01F0913E011082E0913F01F091400157
:1006A0008FEC808310924901E0914501F091460161
:1006B00086E08083E0914301F09144018081806174
:1006C0008083E0914301F0914401808188608083C0
:1006D000E0914301F0914401808180688083E09142
:1006E0004301F091440180818F7D808360E08EE042
:1006F0000E94D30081E08093000194E6692E712C62
:100700002AE0A22EB12C2E0127E0420E511C30E02F
:10071000832E30E0932E80910001A0E48A9FC001D7
:10072000112480937C0080917A00806480937A0009
:1007300080917A0086FDFCCF20917800309179007D
:10074000283EB3E03B0714F027EE33E037FF02C04A
:1007500030E020E0C901B3010E94FF037A8369837E
:10076000B5010E94FF037C836B83C901B5010E9420
:10077000FF039E838D8360E08091D0010E948700FB
:10078000CE0101967C01D701ED91FD917D01EE0F27
:10079000FF1FEF5FFE4FC080D18007E010E0DD2437
:1007A00060E08091CF010E948700C601002E02C048
:1007B000959587950A94E2F761E080FF60E080916B
:1007C000CE010E94870061E08091CF010E948700E6
:1007D0000150110928F74E145F04A9F661E08091D9
:1007E000D0010E9487008114910409F494CF0E94E3
:1007F0006E01882309F48FCF0E9400008CCF97FBF5
:10080000072E16F4009407D077FD09D00E94130438
:1008100007FC05D03EF4909581959F4F0895709503
:1008200061957F4F0895AA1BBB1B51E107C0AA1F0A
:10083000BB1FA617B70710F0A61BB70B881F991F81
:100840005A95A9F780959095BC01CD010895EE0FBA
:0E085000FF1F0590F491E02D0994F894FFCF5E
:10085E00013F0006005B004F0066006D007D000743
:10086E00007F006F0000000000A40104013101F1BF
:08087E00016201400154010078
:00000001FF
