:100000000C9462000C948A000C948A000C948A0070
:100010000C948A000C948A000C948A000C948A0038
:100020000C948A000C948A000C948A000C948A0028
:100030000C948A000C948A000C948A000C948A0018
:100040000C9412030C948A000C9482030C945C03AD
:100050000C948A000C948A000C948A000C948A00F8
:100060000C948A000C948A000000000024002700F1
:100070002A0000000000250028002B0000000000DE
:1000800023002600290004040404040404040202DA
:100090000202020203030303030301020408102007
:1000A0004080010204081020010204081020000012
:1000B0000008000201000003040700000000000027
:1000C0000000B40311241FBECFEFD8E0DEBFCDBFC8
:1000D00022E0AEE6B1E001C01D92AD32B207E1F719
:1000E00011E0A0E0B1E0ECE9F0E102C005900D9272
:1000F000AE36B107D9F710E0C2E6D0E004C02197D0
:10010000FE010E945406C136D107C9F70E940004BF
:100110000C944C080C940000833081F028F481305A
:1001200099F08230A9F008958730A9F08830C9F09D
:100130008430B1F4809180008F7D03C08091800075
:100140008F7780938000089584B58F7784BD08955C
:1001500084B58F7DFBCF8091B0008F778093B00006
:1001600008958091B0008F7DF9CFCF93DF93282F32
:1001700030E0F901E255FF4F8491F901E656FF4F57
:10018000D491F901EA57FF4FC491CC23A1F081111A
:100190000E948C00EC2FF0E0EE0FFF1FE458FF4FA1
:1001A000A591B491EC91ED2381E090E009F480E019
:1001B000DF91CF91089580E090E0FACF1F93CF9325
:1001C000DF93282F30E0F901E255FF4F8491F901C8
:1001D000E656FF4FD491F901EA57FF4FC491CC2363
:1001E000A9F0162F81110E948C00EC2FF0E0EE0F89
:1001F000FF1FEE58FF4FA591B4918FB7F894EC9183
:10020000111108C0D095DE23DC938FBFDF91CF9111
:100210001F910895DE2BF8CFCF93DF9390E0FC0180
:10022000E656FF4F24918A579F4FFC018491882303
:10023000D1F090E0880F991FFC01E859FF4FA5917C
:10024000B491FC01EE58FF4FC591D491623071F426
:100250009FB7F8943C91822F809583238C93E881FB
:100260002E2B28839FBFDF91CF9108958FB7F894ED
:10027000EC912E2B2C938FBFF6CF3FB7F894809143
:10028000750190917601A0917701B091780126B522
:10029000A89B05C02F3F19F00196A11DB11D3FBFBE
:1002A000BA2FA92F982F8827BC01CD01620F711D8D
:1002B000811D911D42E0660F771F881F991F4A9587
:1002C000D1F70895AF92BF92CF92DF92EF92FF9253
:1002D0000F931F93CF93DF936C017B018B01040F6E
:1002E000151FEB015E01AE18BF08C017D10759F00A
:1002F0006991D601ED91FC910190F081E02DC6014C
:100300000995892B79F7C501DF91CF911F910F9145
:10031000FF90EF90DF90CF90BF90AF900895FC01D9
:10032000448155816081718189E791E00E94620179
:1003300042E050E068E171E089E791E00C946201ED
:10034000FC01538D448D252F30E0842F90E0821BDB
:10035000930B541710F0CF96089501970895FC0160
:10036000918D828D981761F0A28DAE0FBF2FB11DB8
:100370005D968C91928D9F5F9F73928F90E0089510
:100380008FEF9FEF0895FC01918D828D981731F0CA
:10039000828DE80FF11D858D90E008958FEF9FEF1E
:1003A0000895FC01918D228D892F90E0805C9F4FF4
:1003B000821B91098F739927089589E791E00E9424
:1003C000D10121E0892B09F420E0822F089580E0FB
:1003D00090E0892B29F00E94DD0181110C9400002E
:1003E0000895FC01A48DA80FB92FB11DA35ABF4FCA
:1003F0002C91848D90E001968F739927848FA68924
:10040000B7892C93A089B1898C91837080648C9377
:10041000938D848D981306C00288F389E02D808126
:100420008F7D80830895EF92FF920F931F93CF9358
:10043000DF93EC0181E0888F9B8D8C8D98131AC01F
:10044000E889F989808185FF15C09FB7F894EE8906
:10045000FF896083E889F989808183708064808363
:100460009FBF81E090E0DF91CF911F910F91FF90AE
:10047000EF900895F62E0B8D10E00F5F1F4F0F7356
:100480001127E02E8C8D8E110CC00FB607FCFACF11
:10049000E889F989808185FFF5CFCE010E94F101BD
:1004A000F1CFEB8DEC0FFD2FF11DE35AFF4FF082E2
:1004B0009FB7F8940B8FEA89FB8980818062CFCF48
:1004C000CF93DF93EC01888D8823B9F0AA89BB898B
:1004D000E889F9898C9185FD03C0808186FD0DC076
:1004E0000FB607FCF7CF8C9185FFF2CF808185FF97
:1004F000EDCFCE010E94F101E9CFDF91CF910895B8
:100500008F929F92AF92BF92CF92DF92EF92FF9223
:10051000CF93DF93EC0161E088810E94DE000E94AE
:100520003D014B015C018AEFC82ED12CE12CF12C4E
:100530000E943D01681979098A099B09683E734048
:1005400081059105A8F321E0C21AD108E108F1085C
:1005500088EE880E83E0981EA11CB11CC114D10442
:10056000E104F10429F760E08881DF91CF91FF90E9
:10057000EF90DF90CF90BF90AF909F908F900C94B2
:10058000DE00FC0180819181009711F00C94F60649
:100590000895EF92FF920F931F93CF93DF93EC0197
:1005A0007B01198218821B821A821D821C82FB0128
:1005B00001900020E9F731978F01061B170BB80156
:1005C0006F5F7F4F90E080E00E947F070097B9F057
:1005D000998388831B830A832C813D81232B11F40B
:1005E000FC0110821D830C83B70188819981DF9102
:1005F000CF911F910F91FF90EF900C944508888147
:100600009981009711F00E94F606198218821D82C6
:100610001C821B821A82DF91CF911F910F91FF9054
:10062000EF9008951F920F920FB60F9211242F93FF
:100630003F938F939F93AF93BF938091710190915C
:100640007201A0917301B09174013091700123E0A7
:10065000230F2D3758F50196A11DB11D2093700170
:100660008093710190937201A0937301B093740110
:100670008091750190917601A0917701B0917801F8
:100680000196A11DB11D8093750190937601A093F1
:100690007701B0937801BF91AF919F918F913F9176
:1006A0002F910F900FBE0F901F90189526E8230FE3
:1006B0000296A11DB11DD2CF1F920F920FB60F92BD
:1006C00011242F933F934F935F936F937F938F9357
:1006D0009F93AF93BF93EF93FF9389E791E00E94BD
:1006E000F101FF91EF91BF91AF919F918F917F9118
:1006F0006F915F914F913F912F910F900FBE0F908F
:100700001F9018951F920F920FB60F9211242F93DE
:100710008F939F93EF93FF93E0918901F0918A016A
:100720008081E0918F01F091900182FD1BC090814A
:10073000809192018F5F8F7320919301821741F016
:10074000E0919201F0E0E758FE4F958F809392017F
:10075000FF91EF919F918F912F910F900FBE0F906E
:100760001F9018958081F4CFE9E7F1E0138212829F
:1007700088EE93E0A0E0B0E084839583A683B783FE
:100780008AE091E09183808385EC90E0958784876F
:1007900084EC90E09787868780EC90E0918B808B4B
:1007A00081EC90E0938B828B82EC90E0958B848B34
:1007B00086EC90E0978B868B118E128E138E148EA2
:1007C00080E090E0A6E1B6E48093250290932602B3
:1007D000A0932702B09328028CE0809324028DE03E
:1007E00080932302E0E2F2E012828BE08083EDE16D
:1007F000F2E012828AE0808389E080931C020895EF
:10080000CF93DF9300D000D000D0CDB7DEB778947F
:1008100084B5826084BD84B5816084BD85B5826005
:1008200085BD85B5816085BD80916E0081608093B6
:100830006E0010928100809181008260809381001F
:10084000809181008160809381008091800081602F
:10085000809380008091B10084608093B10080918A
:10086000B00081608093B00080917A0084608093B2
:100870007A0080917A00826080937A0080917A0079
:10088000816080937A0080917A00806880937A00FA
:100890001092C1006091250270912602809127027A
:1008A000909128020E9403066B017C0160E079E0D0
:1008B0008DE390E0A70196010E9432062150310994
:1008C000410951095695479537952795E09189013A
:1008D000F0918A0182E08083C11481EED806E104A0
:1008E000F10421F0211580E13807A8F0E091890199
:1008F000F0918A01108260E874E88EE190E0A7012F
:1009000096010E943206215031094109510956953C
:10091000479537952795E0918501F09186013083C1
:10092000E0918701F0918801208310929101E0917C
:100930008D01F0918E0186E08083E0918B01F09132
:100940008C01808180618083E0918B01F0918C012A
:10095000808188608083E0918B01F0918C0180819F
:1009600080688083E0918B01F0918C0180818F7D84
:10097000808362E0809124020E940C0162E08091F9
:1009800023020E940C0161E0809120020E940C0170
:1009900061E080911D020E940C0161E080911C02C7
:1009A0000E940C0161E080911C020E94DE0088E040
:1009B00080931A0280EA96E89093190280931802B5
:1009C00061E088E00E940C0181E080931B0210929C
:1009D00017021092160210926F0110926E0100E041
:1009E00010E09924939483E0E82EF12C92E0C92E34
:1009F000D12CAA24A394B12C8091160290911702B5
:100A00000196209118023091190240911B02909397
:100A1000170280931602413019F58217930758F098
:100A200010921B0260E080911A020E94DE00109278
:100A300017021092160280916E0190916F01813021
:100A4000910541F1A0F0039709F45EC0011511056D
:100A500099F20E94DD01882379F20E940000CCCF38
:100A60008217930740F390921B0261E0DCCF6BE1A9
:100A700071E0CE0101960E94C902CE0101960E944A
:100A80008F01CE0101960E94C102B0926F01A09227
:100A90006E01DCCF809124020E94B500892BB1F455
:100AA00066E371E0CE0101960E94C902CE01019673
:100AB0000E948F01CE0101960E94C10280E292E065
:100AC0000E948002D0926F01C0926E018091230239
:100AD0000E94B500892B09F0B9CF61E571E0CE0124
:100AE00001960E94C902CE0101960E948F01CE019B
:100AF00001960E94C1028DE192E00E948002F09274
:100B00006F01E0926E01A2CF809124020E94B50095
:100B1000892B09F09BCF66E371E0CE0101960E941C
:100B2000C902CE0101960E948F01CE0101960E945A
:100B3000C10280E292E00E94800260E080911C028B
:100B40000E94DE0083CF57FD9058440F551F59F087
:100B50005F3F71F04795880F97FB991F61F09F3FAA
:100B600079F087950895121613061406551FF2CFD3
:100B70004695F1DF08C0161617061806991FF1CF23
:100B800086957105610508940895E894BB2766274A
:100B90007727CB0197F908952F923F924F925F925A
:100BA0006F927F928F929F92AF92BF92CF92DF927D
:100BB000EF92FF920F931F93CF93DF93CDB7DEB7E2
:100BC000CA1BDB0B0FB6F894DEBF0FBECDBF099476
:100BD0002A88398848885F846E847D848C849B84CD
:100BE000AA84B984C884DF80EE80FD800C811B81DB
:100BF000AA81B981CE0FD11D0FB6F894DEBF0FBE0A
:100C0000CDBFED0108950E94AB0588F09F5798F085
:100C1000B92F9927B751B0F0E1F0660F771F881F01
:100C2000991F1AF0BA95C9F714C0B13091F00E941B
:100C3000C505B1E008950C94C505672F782F882766
:100C4000B85F39F0B93FCCF3869577956795B39542
:100C5000D9F73EF490958095709561957F4F8F4FB1
:100C60009F4F0895A1E21A2EAA1BBB1BFD010DC0C8
:100C7000AA1FBB1FEE1FFF1FA217B307E407F5074C
:100C800020F0A21BB30BE40BF50B661F771F881F28
:100C9000991F1A9469F760957095809590959B01BE
:100CA000AC01BD01CF010895EE0FFF1F0590F49137
:100CB000E02D09940F931F93CF93DF93823091051A
:100CC00010F482E090E0E0912B02F0912C0230E0F1
:100CD00020E0B0E0A0E0309799F42115310509F447
:100CE0004AC0281B390B24303105D8F58A819B81F5
:100CF0006115710589F1FB0193838283FE0111C0A7
:100D0000408151810281138148175907E0F048174B
:100D1000590799F4109761F012960C931297139655
:100D20001C933296CF01DF91CF911F910F910895BF
:100D300000932B0210932C02F4CF2115310551F0B2
:100D40004217530738F0A901DB019A01BD01DF0109
:100D5000F801C1CFEF01F9CF90932C0280932B02C1
:100D6000CDCFFE01E20FF31F819391932250310901
:100D700039832883D7CF2091290230912A02232B4F
:100D800041F4209102013091030130932A02209313
:100D9000290220910001309101012115310541F412
:100DA0002DB73EB74091040150910501241B350B2E
:100DB000E0912902F0912A02E217F307A0F42E1B1A
:100DC0003F0B2817390778F0AC014E5F5F4F2417AF
:100DD000350748F04E0F5F1F50932A0240932902B7
:100DE000819391939FCFF0E0E0E09CCFCF93DF938E
:100DF0000097E9F0FC01329713821282A0912B0236
:100E0000B0912C02ED0130E020E01097A1F4208198
:100E10003181820F931F2091290230912A022817D5
:100E2000390709F061C0F0932A02E0932902DF91AB
:100E3000CF910895EA01CE17DF07E8F54A815B817B
:100E40009E0141155105B1F7E901FB83EA83499100
:100E50005991C40FD51FEC17FD0761F48081918172
:100E60000296840F951FE90199838883828193817B
:100E70009B838A83F0E0E0E012968D919C9113971A
:100E80000097B9F52D913C911197CD010296820FF3
:100E9000931F2091290230912A022817390739F629
:100EA000309751F510922C0210922B02B0932A0227
:100EB000A0932902BCCFD383C28340815181840F88
:100EC000951FC817D90761F44E5F5F4F88819981DC
:100ED000480F591F518340838A819B81938382836A
:100EE0002115310509F0B0CFF0932C02E0932B02CD
:100EF0009ECFFD01DC01C0CF13821282D7CFB0E0BC
:100F0000A0E0E5E8F7E00C94CE058C01009751F4E1
:100F1000CB010E945A068C01C801CDB7DEB7E0E1D3
:100F20000C94EA05FC01E60FF71F9C0122503109E1
:100F3000E217F30708F49DC0D901CD91DC91119718
:100F4000C617D70798F0C530D10530F3CE01049706
:100F50008617970708F3C61BD70B2297C193D19327
:100F60006D937C93CF010E94F606D6CF5B01AC1A3D
:100F7000BD0A4C018C0E9D1EA0912B02B0912C023B
:100F8000512C412CF12CE12C109731F58091290244
:100F900090912A028815990509F05CC046165706FB
:100FA00008F058C08091000190910101009741F430
:100FB0008DB79EB74091040150910501841B950B9C
:100FC000E817F90708F055C0F0932A02E0932902C8
:100FD000F90171836083A0CF8D919C911197129636
:100FE0006C90129713967C901397A815B90559F534
:100FF0006C0142E0C40ED11CCA14DB0420F1AC0128
:101000004A195B09DA011296159780F062827382A1
:1010100051834083D9016D937C93E114F10471F005
:10102000D7011396FC93EE93129776CF22968C0FEE
:101030009D1FF90191838083F301EFCFF0932C0280
:10104000E0932B0269CF4816590608F42C017D0164
:10105000D3019ACFCB010E945A067C01009749F038
:10106000AE01B8010E943C08C8010E94F606870143
:1010700053CF10E000E050CFFB01DC0102C0019033
:101080000D9241505040D8F70895FB01DC010190CA
:0C1090000D920020E1F70895F894FFCFC6
:10109C0000002D0280000000000013026201A0017C
:1010AC006002D101AF01C3010D0A007468652073A1
:1010BC00797374656D206973207374617274696ED1
:1010CC00672E2E2E2E00697220696E73696465205E
:1010DC00627574746F6E207472696767657265648B
:1010EC00006972206F75747369646520627574741D
:0E10FC006F6E2074726967676572656400002C
:00000001FF
