:020000040000FA
:100000000C9462000C948A000C948A000C948A0070
:100010000C948A000C948A000C948A000C948A0038
:100020000C948A000C948A000C948A000C948A0028
:100030000C948A000C948A000C948A000C948A0018
:100040000C94EE020C948A000C945E030C9438031A
:100050000C948A000C948A000C948A000C948A00F8
:100060000C948A000C948A000000000024002700F1
:100070002A0000000000250028002B0000000000DE
:1000800023002600290004040404040404040202DA
:100090000202020203030303030301020408102007
:1000A0004080010204081020010204081020000012
:1000B0000008000201000003040700000000000027
:1000C0000000900311241FBECFEFD8E0DEBFCDBFEC
:1000D00022E0AEE6B1E001C01D92A632B207E1F720
:1000E00011E0A0E0B1E0E6E8F0E102C005900D9279
:1000F000AE36B107D9F710E0C2E6D0E004C02197D0
:10010000FE010E944906C136D107C9F70E94D903F2
:100110000C9441080C940000833081F028F4813065
:1001200099F08230A9F008958730A9F08830C9F09D
:100130008430B1F4809180008F7D03C08091800075
:100140008F7780938000089584B58F7784BD08955C
:1001500084B58F7DFBCF8091B0008F778093B00006
:1001600008958091B0008F7DF9CFCF93DF93282F32
:1001700030E0F901E255FF4F8491F901E656FF4F57
:10018000D491F901EA57FF4FC491CC23A1F081111A
:100190000E948C00EC2FF0E0EE0FFF1FE458FF4FA1
:1001A000A591B491EC91ED2381E090E009F480E019
:1001B000DF91CF91089580E090E0FACF1F93CF9325
:1001C000DF93282F30E0F901E255FF4F8491F901C8
:1001D000E656FF4FD491F901EA57FF4FC491CC2363
:1001E000A9F0162F81110E948C00EC2FF0E0EE0F89
:1001F000FF1FEE58FF4FA591B4918FB7F894EC9183
:10020000111108C0D095DE23DC938FBFDF91CF9111
:100210001F910895DE2BF8CFCF93DF9390E0FC0180
:10022000E656FF4F24918A579F4FFC018491882303
:10023000D1F090E0880F991FFC01E859FF4FA5917C
:10024000B491FC01EE58FF4FC591D491623071F426
:100250009FB7F8943C91822F809583238C93E881FB
:100260002E2B28839FBFDF91CF9108958FB7F894ED
:10027000EC912E2B2C938FBFF6CF3FB7F894809143
:10028000750190917601A0917701B091780126B522
:10029000A89B05C02F3F19F00196A11DB11D3FBFBE
:1002A000BA2FA92F982F8827BC01CD01620F711D8D
:1002B000811D911D42E0660F771F881F991F4A9587
:1002C000D1F708958F929F92AF92BF92CF92DF9213
:1002D000EF92FF9261E0809119020E94DE000E947D
:1002E0003D014B015C018AEFC82ED12CE12CF12C91
:1002F0000E943D01681979098A099B09683E73408B
:1003000081059105A8F321E0C21AD108E108F1089E
:1003100088EE880E83E0981EA11CB11CC114D10484
:10032000E104F10429F760E080911902FF90EF9059
:10033000DF90CF90BF90AF909F908F900C94DE0095
:10034000AF92BF92CF92DF92EF92FF920F931F93E3
:10035000CF93DF936C017B018B01040F151FEB0121
:100360005E01AE18BF08C017D10759F06991D601D8
:10037000ED91FC910190F081E02DC6010995892B4A
:1003800079F7C501DF91CF911F910F91FF90EF9009
:10039000DF90CF90BF90AF900895FC0144815581CC
:1003A0006081718189E791E00E94A00142E050E004
:1003B00068E171E089E791E00C94A001FC01538DA4
:1003C000448D252F30E0842F90E0821B930B54172F
:1003D00010F0CF96089501970895FC01918D828DBC
:1003E000981761F0A28DAE0FBF2FB11D5D968C9155
:1003F000928D9F5F9F73928F90E008958FEF9FEF94
:100400000895FC01918D828D981731F0828DE80F4F
:10041000F11D858D90E008958FEF9FEF0895FC0109
:10042000918D228D892F90E0805C9F4F821B9109D6
:100430008F739927089589E791E00E940F0221E0C8
:10044000892B09F420E0822F089580E090E0892B29
:1004500029F00E941B0281110C9400000895FC01F8
:10046000A48DA80FB92FB11DA35ABF4F2C91848D15
:1004700090E001968F739927848FA689B7892C9372
:10048000A089B1898C91837080648C93938D848DC5
:10049000981306C00288F389E02D80818F7D8083C8
:1004A0000895EF92FF920F931F93CF93DF93EC0188
:1004B00081E0888F9B8D8C8D98131AC0E889F9890B
:1004C000808185FF15C09FB7F894EE89FF8960830E
:1004D000E889F98980818370806480839FBF81E08F
:1004E00090E0DF91CF911F910F91FF90EF900895D1
:1004F000F62E0B8D10E00F5F1F4F0F731127E02EAC
:100500008C8D8E110CC00FB607FCFACFE889F989E3
:10051000808185FFF5CFCE010E942F02F1CFEB8DB8
:10052000EC0FFD2FF11DE35AFF4FF0829FB7F894B7
:100530000B8FEA89FB8980818062CFCFCF93DF93D5
:10054000EC01888D8823B9F0AA89BB89E889F989EB
:100550008C9185FD03C0808186FD0DC00FB607FC20
:10056000F7CF8C9185FFF2CF808185FFEDCFCE0153
:100570000E942F02E9CFDF91CF910895FC01808185
:100580009181009711F00C94EB0608950F931F933F
:10059000CF93DF93EC0188819981009759F02A81EC
:1005A0003B812617370730F081E0DF91CF911F9113
:1005B0000F9108958B016F5F7F4F0E947407009722
:1005C00059F0998388831B830A832C813D81232BD7
:1005D00059F7FC011082E8CF80E0E7CF1F920F921D
:1005E0000FB60F9211242F933F938F939F93AF9346
:1005F000BF938091710190917201A0917301B091AC
:1006000074013091700123E0230F2D3758F50196C6
:10061000A11DB11D2093700180937101909372010F
:10062000A0937301B093740180917501909176014C
:10063000A0917701B09178010196A11DB11D809321
:10064000750190937601A0937701B0937801BF91E3
:10065000AF919F918F913F912F910F900FBE0F906F
:100660001F90189526E8230F0296A11DB11DD2CF29
:100670001F920F920FB60F9211242F933F934F9317
:100680005F936F937F938F939F93AF93BF93EF93FA
:10069000FF9389E791E00E942F02FF91EF91BF91B4
:1006A000AF919F918F917F916F915F914F913F910A
:1006B0002F910F900FBE0F901F9018951F920F92C1
:1006C0000FB60F9211242F938F939F93EF93FF9365
:1006D000E0918901F0918A018081E0918F01F09190
:1006E000900182FD1BC09081809192018F5F8F737A
:1006F00020919301821741F0E0919201F0E0E758D8
:10070000FE4F958F80939201FF91EF919F918F9172
:100710002F910F900FBE0F901F9018958081F4CFEE
:10072000E9E7F1E01382128288EE93E0A0E0B0E006
:1007300084839583A683B7838AE091E09183808345
:1007400085EC90E09587848784EC90E09787868796
:1007500080EC90E0918B808B81EC90E0938B828B8E
:1007600082EC90E0958B848B86EC90E0978B868B67
:10077000118E128E138E148E80E090E0A6E1B6E406
:1007800080931E0290931F02A0932002B093210237
:100790008DE080931D028CE080931C02E9E1F2E081
:1007A000128287E08083E6E1F2E0128286E08083B5
:1007B0000895CF93DF9300D000D000D0CDB7DEB73F
:1007C000789484B5826084BD84B5816084BD85B52C
:1007D000826085BD85B5816085BD80916E00816038
:1007E00080936E00109281008091810082608093DE
:1007F00081008091810081608093810080918000E0
:100800008160809380008091B10084608093B1000A
:100810008091B00081608093B00080917A00846004
:1008200080937A0080917A00826080937A00809130
:100830007A00816080937A0080917A00806880934A
:100840007A001092C10060911E0270911F02809187
:100850002002909121020E94F8056B017C0160E06A
:1008600079E08DE390E0A70196010E9427062150D0
:100870003109410951095695479537952795E091DA
:100880008901F0918A0182E08083C11481EED8064B
:10089000E104F10421F0211580E13807A8F0E0918E
:1008A0008901F0918A01108260E874E88EE190E09D
:1008B000A70196010E9427062150310941095109DB
:1008C0005695479537952795E0918501F0918601DA
:1008D0003083E0918701F09188012083109291018B
:1008E000E0918D01F0918E0186E08083E0918B0193
:1008F000F0918C01808180618083E0918B01F09187
:100900008C01808188608083E0918B01F0918C0163
:10091000808180688083E0918B01F0918C018081DF
:100920008F7D808362E080911D020E940C0162E055
:1009300080911C020E940C0161E0809119020E94CA
:100940000C0161E0809116020E940C0110926F016F
:1009500010926E018FEF8AB961E087E00E940C016E
:1009600061E086E00E940C0161E085E00E940C01DC
:1009700061E084E00E940C0161E083E00E940C01D0
:1009800061E082E00E940C0161E087E00E94DE00ED
:1009900061E086E00E94DE0061E085E00E94DE000A
:1009A00061E084E00E94DE0061E083E00E94DE00FE
:1009B00061E082E00E94DE0000E010E0EE24E394BB
:1009C000F12C61E087E00E94DE000E9462018091CC
:1009D0006E0190916F01009761F00197E9F10115A7
:1009E000110579F30E941B02882359F30E9400002D
:1009F000E8CF1A8219821C821B821E821D826AE144
:100A000070E0CE0101960E94C60229813A818111CF
:100A100019C02115310519F0C9010E94EB061A828F
:100A200019821E821D821C821B82CE0101960E94A9
:100A3000CD01CE0101960E94BE02F0926F01E092BC
:100A40006E01CDCF8AE190E09E838D836BE171E0F2
:100A5000C9010E943A08E9CF80911D020E94B500A9
:100A6000892B31F51A8219821C821B821E821D82FB
:100A70006AE170E0CE0101960E94C60229813A81A6
:100A8000811142C02115310519F0C9010E94EB0600
:100A90001A8219821E821D821C821B82CE0101963F
:100AA0000E94CD01CE0101960E94BE020E94620109
:100AB00080911C020E94B500892B09F090CF1A8208
:100AC00019821C821B821E821D826BE170E0CE01A6
:100AD00001960E94C60229813A8181111FC0211509
:100AE000310519F0C9010E94EB061A8219821E8293
:100AF0001D821C821B82CE0101960E94CD01CE0177
:100B000001960E94BE026BCF8AE190E09E838D83A6
:100B100066E371E0C9010E943A08C0CF8BE190E022
:100B20009E838D8361E571E0C9010E943A08E3CF9D
:100B300057FD9058440F551F59F05F3F71F047958E
:100B4000880F97FB991F61F09F3F79F08795089573
:100B5000121613061406551FF2CF4695F1DF08C092
:100B6000161617061806991FF1CF869571056105AF
:100B700008940895E894BB2766277727CB0197F957
:100B800008952F923F924F925F926F927F928F9231
:100B90009F92AF92BF92CF92DF92EF92FF920F930C
:100BA0001F93CF93DF93CDB7DEB7CA1BDB0B0FB616
:100BB000F894DEBF0FBECDBF09942A8839884888D3
:100BC0005F846E847D848C849B84AA84B984C88469
:100BD000DF80EE80FD800C811B81AA81B981CE0F60
:100BE000D11D0FB6F894DEBF0FBECDBFED01089545
:100BF0000E94A00588F09F5798F0B92F9927B75108
:100C0000B0F0E1F0660F771F881F991F1AF0BA95B0
:100C1000C9F714C0B13091F00E94BA05B1E008954F
:100C20000C94BA05672F782F8827B85F39F0B93F41
:100C3000CCF3869577956795B395D9F73EF4909563
:100C40008095709561957F4F8F4F9F4F0895A1E2DA
:100C50001A2EAA1BBB1BFD010DC0AA1FBB1FEE1F36
:100C6000FF1FA217B307E407F50720F0A21BB30B81
:100C7000E40BF50B661F771F881F991F1A9469F7FD
:100C800060957095809590959B01AC01BD01CF0159
:100C90000895EE0FFF1F0590F491E02D09940F9336
:100CA0001F93CF93DF938230910510F482E090E0A0
:100CB000E0912402F091250230E020E0B0E0A0E0D5
:100CC000309799F42115310509F44AC0281B390BD6
:100CD00024303105D8F58A819B816115710589F130
:100CE000FB0193838283FE0111C040815181028107
:100CF000138148175907E0F04817590799F41097DE
:100D000061F012960C93129713961C933296CF01B2
:100D1000DF91CF911F910F910895009324021093BA
:100D20002502F4CF2115310551F04217530738F051
:100D3000A901DB019A01BD01DF01F801C1CFEF017B
:100D4000F9CF9093250280932402CDCFFE01E20FCC
:100D5000F31F819391932250310939832883D7CF90
:100D60002091220230912302232B41F42091020191
:100D7000309103013093230220932202209100013D
:100D8000309101012115310541F42DB73EB7409155
:100D9000040150910501241B350BE0912202F091D2
:100DA0002302E217F307A0F42E1B3F0B2817390785
:100DB00078F0AC014E5F5F4F2417350748F04E0FB7
:100DC0005F1F5093230240932202819391939FCF00
:100DD000F0E0E0E09CCFCF93DF930097E9F0FC01D7
:100DE000329713821282A0912402B0912502ED0164
:100DF00030E020E01097A1F420813181820F931F11
:100E000020912202309123022817390709F061C08E
:100E1000F0932302E0932202DF91CF910895EA013B
:100E2000CE17DF07E8F54A815B819E014115510528
:100E3000B1F7E901FB83EA8349915991C40FD51FAA
:100E4000EC17FD0761F4808191810296840F951F54
:100E5000E90199838883828193819B838A83F0E06F
:100E6000E0E012968D919C9113970097B9F52D9122
:100E70003C911197CD010296820F931F209122027F
:100E8000309123022817390739F6309751F510921F
:100E9000250210922402B0932302A0932202BCCF19
:100EA000D383C28340815181840F951FC817D9070E
:100EB00061F44E5F5F4F88819981480F591F5183BC
:100EC00040838A819B81938382832115310509F0B8
:100ED000B0CFF0932502E09324029ECFFD01DC0108
:100EE000C0CF13821282D7CFB0E0A0E0EAE7F7E0EC
:100EF0000C94C3058C01009751F4CB010E944F065E
:100F00008C01C801CDB7DEB7E0E10C94DF05FC0130
:100F1000E60FF71F9C0122503109E217F30708F48E
:100F20009DC0D901CD91DC911197C617D70798F0D4
:100F3000C530D10530F3CE0104978617970708F323
:100F4000C61BD70B2297C193D1936D937C93CF018E
:100F50000E94EB06D6CF5B01AC1ABD0A4C018C0E89
:100F60009D1EA0912402B0912502512C412CF12C00
:100F7000E12C109731F5809122029091230288157F
:100F8000990509F05CC04616570608F058C08091D4
:100F9000000190910101009741F48DB79EB74091F7
:100FA000040150910501841B950BE817F90708F01F
:100FB00055C0F0932302E0932202F901718360830C
:100FC000A0CF8D919C91119712966C9012971396C9
:100FD0007C901397A815B90559F56C0142E0C40E31
:100FE000D11CCA14DB0420F1AC014A195B09DA01F7
:100FF0001296159780F06282738251834083D901E3
:101000006D937C93E114F10471F0D7011396FC9376
:10101000EE93129776CF22968C0F9D1FF901918344
:101020008083F301EFCFF0932502E093240269CF90
:101030004816590608F42C017D01D3019ACFCB0143
:101040000E944F067C01009749F0AE01B8010E9452
:101050003108C8010E94EB06870153CF10E000E081
:1010600050CFFB01DC0102C001900D924150504075
:10107000D8F70895FB01DC0101900D920020E1F703
:101080000895F894FFCF00002602800000000000C1
:101090005102A001DE019E020F02ED0101020D0AC4
:1010A000007468652073797374656D2069732073AB
:1010B00074617274696E672E2E2E2E00697220691B
:1010C0006E7369646520627574746F6E20747269E2
:1010D000676765726564006972206F75747369640F
:1010E0006520627574746F6E2074726967676572CB
:0410F0006564000033
:107E0000112484B714BE81FFF0D085E080938100F7
:107E100082E08093C00088E18093C10086E0809377
:107E2000C20080E18093C4008EE0C9D0259A86E02C
:107E300020E33CEF91E0309385002093840096BBD3
:107E4000B09BFECF1D9AA8958150A9F7CC24DD24C4
:107E500088248394B5E0AB2EA1E19A2EF3E0BF2EE7
:107E6000A2D0813461F49FD0082FAFD0023811F036
:107E7000013811F484E001C083E08DD089C08234E0
:107E800011F484E103C0853419F485E0A6D080C0E4
:107E9000853579F488D0E82EFF2485D0082F10E0AE
:107EA000102F00270E291F29000F111F8ED06801E7
:107EB0006FC0863521F484E090D080E0DECF843638
:107EC00009F040C070D06FD0082F6DD080E0C81688
:107ED00080E7D80618F4F601B7BEE895C0E0D1E017
:107EE00062D089930C17E1F7F0E0CF16F0E7DF06D8
:107EF00018F0F601B7BEE89568D007B600FCFDCFD4
:107F0000A601A0E0B1E02C9130E011968C91119780
:107F100090E0982F8827822B932B1296FA010C0160
:107F200087BEE89511244E5F5F4FF1E0A038BF0790
:107F300051F7F601A7BEE89507B600FCFDCF97BE46
:107F4000E89526C08437B1F42ED02DD0F82E2BD052
:107F50003CD0F601EF2C8F010F5F1F4F84911BD097
:107F6000EA94F801C1F70894C11CD11CFA94CF0C13
:107F7000D11C0EC0853739F428D08EE10CD085E9AC
:107F80000AD08FE07ACF813511F488E018D01DD067
:107F900080E101D065CF982F8091C00085FFFCCF94
:107FA0009093C60008958091C00087FFFCCF809118
:107FB000C00084FD01C0A8958091C6000895E0E648
:107FC000F0E098E1908380830895EDDF803219F02E
:107FD00088E0F5DFFFCF84E1DECF1F93182FE3DFCA
:107FE0001150E9F7F2DF1F91089580E0E8DFEE27F6
:047FF000FF270994CA
:027FFE00040479
:00000001FF
